{
  "contractName": "Dex",
  "abi": [
    {
      "anonymous": false,
      "inputs": [
        {
          "indexed": true,
          "internalType": "address",
          "name": "previousOwner",
          "type": "address"
        },
        {
          "indexed": true,
          "internalType": "address",
          "name": "newOwner",
          "type": "address"
        }
      ],
      "name": "OwnershipTransferred",
      "type": "event"
    },
    {
      "inputs": [
        {
          "internalType": "bytes32",
          "name": "ticker",
          "type": "bytes32"
        },
        {
          "internalType": "address",
          "name": "tokenAddress",
          "type": "address"
        }
      ],
      "name": "addToken",
      "outputs": [],
      "stateMutability": "nonpayable",
      "type": "function"
    },
    {
      "inputs": [
        {
          "internalType": "address",
          "name": "",
          "type": "address"
        },
        {
          "internalType": "bytes32",
          "name": "",
          "type": "bytes32"
        }
      ],
      "name": "balances",
      "outputs": [
        {
          "internalType": "uint256",
          "name": "",
          "type": "uint256"
        }
      ],
      "stateMutability": "view",
      "type": "function",
      "constant": true
    },
    {
      "inputs": [
        {
          "internalType": "uint256",
          "name": "amount",
          "type": "uint256"
        },
        {
          "internalType": "bytes32",
          "name": "ticker",
          "type": "bytes32"
        }
      ],
      "name": "deposit",
      "outputs": [],
      "stateMutability": "nonpayable",
      "type": "function"
    },
    {
      "inputs": [],
      "name": "nextOrderId",
      "outputs": [
        {
          "internalType": "uint256",
          "name": "",
          "type": "uint256"
        }
      ],
      "stateMutability": "view",
      "type": "function",
      "constant": true
    },
    {
      "inputs": [
        {
          "internalType": "bytes32",
          "name": "",
          "type": "bytes32"
        },
        {
          "internalType": "uint256",
          "name": "",
          "type": "uint256"
        },
        {
          "internalType": "uint256",
          "name": "",
          "type": "uint256"
        }
      ],
      "name": "orderBook",
      "outputs": [
        {
          "internalType": "uint256",
          "name": "id",
          "type": "uint256"
        },
        {
          "internalType": "address",
          "name": "trader",
          "type": "address"
        },
        {
          "internalType": "enum Dex.Side",
          "name": "side",
          "type": "uint8"
        },
        {
          "internalType": "bytes32",
          "name": "ticker",
          "type": "bytes32"
        },
        {
          "internalType": "uint256",
          "name": "amount",
          "type": "uint256"
        },
        {
          "internalType": "uint256",
          "name": "price",
          "type": "uint256"
        },
        {
          "internalType": "uint256",
          "name": "filled",
          "type": "uint256"
        }
      ],
      "stateMutability": "view",
      "type": "function",
      "constant": true
    },
    {
      "inputs": [],
      "name": "owner",
      "outputs": [
        {
          "internalType": "address",
          "name": "",
          "type": "address"
        }
      ],
      "stateMutability": "view",
      "type": "function",
      "constant": true
    },
    {
      "inputs": [],
      "name": "renounceOwnership",
      "outputs": [],
      "stateMutability": "nonpayable",
      "type": "function"
    },
    {
      "inputs": [
        {
          "internalType": "uint256",
          "name": "",
          "type": "uint256"
        }
      ],
      "name": "tokenList",
      "outputs": [
        {
          "internalType": "bytes32",
          "name": "",
          "type": "bytes32"
        }
      ],
      "stateMutability": "view",
      "type": "function",
      "constant": true
    },
    {
      "inputs": [
        {
          "internalType": "bytes32",
          "name": "",
          "type": "bytes32"
        }
      ],
      "name": "tokenMapping",
      "outputs": [
        {
          "internalType": "bytes32",
          "name": "ticker",
          "type": "bytes32"
        },
        {
          "internalType": "address",
          "name": "tokenAddress",
          "type": "address"
        }
      ],
      "stateMutability": "view",
      "type": "function",
      "constant": true
    },
    {
      "inputs": [
        {
          "internalType": "address",
          "name": "newOwner",
          "type": "address"
        }
      ],
      "name": "transferOwnership",
      "outputs": [],
      "stateMutability": "nonpayable",
      "type": "function"
    },
    {
      "inputs": [
        {
          "internalType": "uint256",
          "name": "amount",
          "type": "uint256"
        },
        {
          "internalType": "bytes32",
          "name": "ticker",
          "type": "bytes32"
        }
      ],
      "name": "withdraw",
      "outputs": [],
      "stateMutability": "nonpayable",
      "type": "function"
    },
    {
      "inputs": [
        {
          "internalType": "bytes32",
          "name": "ticker",
          "type": "bytes32"
        },
        {
          "internalType": "enum Dex.Side",
          "name": "side",
          "type": "uint8"
        }
      ],
      "name": "getOrderBook",
      "outputs": [
        {
          "components": [
            {
              "internalType": "uint256",
              "name": "id",
              "type": "uint256"
            },
            {
              "internalType": "address",
              "name": "trader",
              "type": "address"
            },
            {
              "internalType": "enum Dex.Side",
              "name": "side",
              "type": "uint8"
            },
            {
              "internalType": "bytes32",
              "name": "ticker",
              "type": "bytes32"
            },
            {
              "internalType": "uint256",
              "name": "amount",
              "type": "uint256"
            },
            {
              "internalType": "uint256",
              "name": "price",
              "type": "uint256"
            },
            {
              "internalType": "uint256",
              "name": "filled",
              "type": "uint256"
            }
          ],
          "internalType": "struct Dex.Order[]",
          "name": "",
          "type": "tuple[]"
        }
      ],
      "stateMutability": "view",
      "type": "function",
      "constant": true
    },
    {
      "inputs": [
        {
          "internalType": "enum Dex.Side",
          "name": "side",
          "type": "uint8"
        },
        {
          "internalType": "bytes32",
          "name": "ticker",
          "type": "bytes32"
        },
        {
          "internalType": "uint256",
          "name": "amount",
          "type": "uint256"
        },
        {
          "internalType": "uint256",
          "name": "price",
          "type": "uint256"
        },
        {
          "internalType": "uint256",
          "name": "filled",
          "type": "uint256"
        }
      ],
      "name": "createLimitOrder",
      "outputs": [],
      "stateMutability": "nonpayable",
      "type": "function"
    },
    {
      "inputs": [
        {
          "internalType": "enum Dex.Side",
          "name": "side",
          "type": "uint8"
        },
        {
          "internalType": "bytes32",
          "name": "ticker",
          "type": "bytes32"
        },
        {
          "internalType": "uint256",
          "name": "amount",
          "type": "uint256"
        }
      ],
      "name": "createMarketOrder",
      "outputs": [],
      "stateMutability": "nonpayable",
      "type": "function"
    }
  ],
  "bytecode": "0x608060405260006005553480156200001657600080fd5b50620000376200002b6200003d60201b60201c565b6200004560201b60201c565b62000109565b600033905090565b60008060009054906101000a900473ffffffffffffffffffffffffffffffffffffffff169050816000806101000a81548173ffffffffffffffffffffffffffffffffffffffff021916908373ffffffffffffffffffffffffffffffffffffffff1602179055508173ffffffffffffffffffffffffffffffffffffffff168173ffffffffffffffffffffffffffffffffffffffff167f8be0079c531659141344cd1fd0a4f28419497f9722a3daafe3b4186f6b6457e060405160405180910390a35050565b61302c80620001196000396000f3fe608060405234801561001057600080fd5b50600436106100ea5760003560e01c806399ec2f1c1161008c578063ba58ea6811610066578063ba58ea6814610250578063c9630cb014610280578063da3fbb761461029c578063f2fde38b146102b8576100ea565b806399ec2f1c146101e85780639ead722214610204578063a8d2021a14610234576100ea565b8063667cb4ba116100c8578063667cb4ba14610173578063715018a6146101a45780638da5cb5b146101ae5780639776aacf146101cc576100ea565b80630bb431b6146100ef5780631f14df69146101255780632a58b33014610155575b600080fd5b6101096004803603810190610104919061254f565b6102d4565b60405161011c9796959493929190612678565b60405180910390f35b61013f600480360381019061013a9190612713565b61036d565b60405161014c9190612753565b60405180910390f35b61015d610392565b60405161016a9190612753565b60405180910390f35b61018d6004803603810190610188919061276e565b610398565b60405161019b92919061279b565b60405180910390f35b6101ac6103dc565b005b6101b66103f0565b6040516101c391906127c4565b60405180910390f35b6101e660048036038101906101e191906127df565b610419565b005b61020260048036038101906101fd9190612844565b6104e0565b005b61021e60048036038101906102199190612897565b61131b565b60405161022b91906128c4565b60405180910390f35b61024e600480360381019061024991906128df565b61133f565b005b61026a6004803603810190610265919061291f565b6115ac565b6040516102779190612ad8565b60405180910390f35b61029a600480360381019061029591906128df565b611705565b005b6102b660048036038101906102b19190612afa565b6118e1565b005b6102d260048036038101906102cd9190612b75565b612311565b005b600460205282600052604060002060205281600052604060002081815481106102fc57600080fd5b906000526020600020906006020160009250925050508060000154908060010160009054906101000a900473ffffffffffffffffffffffffffffffffffffffff16908060010160149054906101000a900460ff16908060020154908060030154908060040154908060050154905087565b6003602052816000526040600020602052806000526040600020600091509150505481565b60055481565b60016020528060005260406000206000915090508060000154908060010160009054906101000a900473ffffffffffffffffffffffffffffffffffffffff16905082565b6103e4612394565b6103ee6000612412565b565b60008060009054906101000a900473ffffffffffffffffffffffffffffffffffffffff16905090565b610421612394565b60405180604001604052808381526020018273ffffffffffffffffffffffffffffffffffffffff16815250600160008481526020019081526020016000206000820151816000015560208201518160010160006101000a81548173ffffffffffffffffffffffffffffffffffffffff021916908373ffffffffffffffffffffffffffffffffffffffff16021790555090505060028290806001815401808255809150506001900390600052602060002001600090919091909150555050565b6001808111156104f3576104f26125f2565b5b836001811115610506576105056125f2565b5b0361059f5780600360003373ffffffffffffffffffffffffffffffffffffffff1673ffffffffffffffffffffffffffffffffffffffff168152602001908152602001600020600084815260200190815260200160002054101561059e576040517f08c379a000000000000000000000000000000000000000000000000000000000815260040161059590612bff565b60405180910390fd5b5b60008060018111156105b4576105b36125f2565b5b8460018111156105c7576105c66125f2565b5b036105d557600190506105da565b600090505b600060046000858152602001908152602001600020600083815260200190815260200160002090506000805b82805490508110801561061857508482105b156110c7576000828661062b9190612c4e565b9050600084838154811061064257610641612c82565b5b90600052602060002090600602016005015485848154811061066757610666612c82565b5b9060005260206000209060060201600301546106839190612c4e565b90506000828211156106975782905061069b565b8190505b80856106a79190612cb1565b9450808685815481106106bd576106bc612c82565b5b9060005260206000209060060201600501546106d99190612cb1565b8685815481106106ec576106eb612c82565b5b906000526020600020906006020160050181905550600086858154811061071657610715612c82565b5b906000526020600020906006020160040154826107339190612ce5565b905060006001811115610749576107486125f2565b5b8b600181111561075c5761075b6125f2565b5b03610c335780600360003373ffffffffffffffffffffffffffffffffffffffff1673ffffffffffffffffffffffffffffffffffffffff16815260200190815260200160002060007f455448000000000000000000000000000000000000000000000000000000000081526020019081526020016000205410156107de57600080fd5b81600360003373ffffffffffffffffffffffffffffffffffffffff1673ffffffffffffffffffffffffffffffffffffffff16815260200190815260200160002060008c81526020019081526020016000205461083a9190612cb1565b600360003373ffffffffffffffffffffffffffffffffffffffff1673ffffffffffffffffffffffffffffffffffffffff16815260200190815260200160002060008c81526020019081526020016000208190555080600360003373ffffffffffffffffffffffffffffffffffffffff1673ffffffffffffffffffffffffffffffffffffffff16815260200190815260200160002060007f455448000000000000000000000000000000000000000000000000000000000081526020019081526020016000205461090a9190612c4e565b600360003373ffffffffffffffffffffffffffffffffffffffff1673ffffffffffffffffffffffffffffffffffffffff16815260200190815260200160002060007f4554480000000000000000000000000000000000000000000000000000000000815260200190815260200160002081905550816003600089888154811061099657610995612c82565b5b906000526020600020906006020160010160009054906101000a900473ffffffffffffffffffffffffffffffffffffffff1673ffffffffffffffffffffffffffffffffffffffff1673ffffffffffffffffffffffffffffffffffffffff16815260200190815260200160002060008c815260200190815260200160002054610a1e9190612c4e565b60036000898881548110610a3557610a34612c82565b5b906000526020600020906006020160010160009054906101000a900473ffffffffffffffffffffffffffffffffffffffff1673ffffffffffffffffffffffffffffffffffffffff1673ffffffffffffffffffffffffffffffffffffffff16815260200190815260200160002060008c8152602001908152602001600020819055508060036000898881548110610ace57610acd612c82565b5b906000526020600020906006020160010160009054906101000a900473ffffffffffffffffffffffffffffffffffffffff1673ffffffffffffffffffffffffffffffffffffffff1673ffffffffffffffffffffffffffffffffffffffff16815260200190815260200160002060007f4554480000000000000000000000000000000000000000000000000000000000815260200190815260200160002054610b769190612cb1565b60036000898881548110610b8d57610b8c612c82565b5b906000526020600020906006020160010160009054906101000a900473ffffffffffffffffffffffffffffffffffffffff1673ffffffffffffffffffffffffffffffffffffffff1673ffffffffffffffffffffffffffffffffffffffff16815260200190815260200160002060007f45544800000000000000000000000000000000000000000000000000000000008152602001908152602001600020819055506110b0565b600180811115610c4657610c456125f2565b5b8b6001811115610c5957610c586125f2565b5b036110af5781600360003373ffffffffffffffffffffffffffffffffffffffff1673ffffffffffffffffffffffffffffffffffffffff16815260200190815260200160002060008c815260200190815260200160002054610cba9190612c4e565b600360003373ffffffffffffffffffffffffffffffffffffffff1673ffffffffffffffffffffffffffffffffffffffff16815260200190815260200160002060008c81526020019081526020016000208190555080600360003373ffffffffffffffffffffffffffffffffffffffff1673ffffffffffffffffffffffffffffffffffffffff16815260200190815260200160002060007f4554480000000000000000000000000000000000000000000000000000000000815260200190815260200160002054610d8a9190612cb1565b600360003373ffffffffffffffffffffffffffffffffffffffff1673ffffffffffffffffffffffffffffffffffffffff16815260200190815260200160002060007f45544800000000000000000000000000000000000000000000000000000000008152602001908152602001600020819055508160036000898881548110610e1657610e15612c82565b5b906000526020600020906006020160010160009054906101000a900473ffffffffffffffffffffffffffffffffffffffff1673ffffffffffffffffffffffffffffffffffffffff1673ffffffffffffffffffffffffffffffffffffffff16815260200190815260200160002060008c815260200190815260200160002054610e9e9190612cb1565b60036000898881548110610eb557610eb4612c82565b5b906000526020600020906006020160010160009054906101000a900473ffffffffffffffffffffffffffffffffffffffff1673ffffffffffffffffffffffffffffffffffffffff1673ffffffffffffffffffffffffffffffffffffffff16815260200190815260200160002060008c8152602001908152602001600020819055508060036000898881548110610f4e57610f4d612c82565b5b906000526020600020906006020160010160009054906101000a900473ffffffffffffffffffffffffffffffffffffffff1673ffffffffffffffffffffffffffffffffffffffff1673ffffffffffffffffffffffffffffffffffffffff16815260200190815260200160002060007f4554480000000000000000000000000000000000000000000000000000000000815260200190815260200160002054610ff69190612c4e565b6003600089888154811061100d5761100c612c82565b5b906000526020600020906006020160010160009054906101000a900473ffffffffffffffffffffffffffffffffffffffff1673ffffffffffffffffffffffffffffffffffffffff1673ffffffffffffffffffffffffffffffffffffffff16815260200190815260200160002060007f45544800000000000000000000000000000000000000000000000000000000008152602001908152602001600020819055505b5b5050505080806110bf90612d27565b915050610606565b505b600082805490501180156111265750816000815481106110ec576110eb612c82565b5b9060005260206000209060060201600301548260008154811061111257611111612c82565b5b906000526020600020906006020160050154145b156113135760005b6001838054905061113f9190612c4e565b81101561128057826001826111549190612cb1565b8154811061116557611164612c82565b5b906000526020600020906006020183828154811061118657611185612c82565b5b9060005260206000209060060201600082015481600001556001820160009054906101000a900473ffffffffffffffffffffffffffffffffffffffff168160010160006101000a81548173ffffffffffffffffffffffffffffffffffffffff021916908373ffffffffffffffffffffffffffffffffffffffff1602179055506001820160149054906101000a900460ff168160010160146101000a81548160ff0219169083600181111561123d5761123c6125f2565b5b021790555060028201548160020155600382015481600301556004820154816004015560058201548160050155905050808061127890612d27565b91505061112e565b508180548061129257611291612d6f565b5b60019003818190600052602060002090600602016000808201600090556001820160006101000a81549073ffffffffffffffffffffffffffffffffffffffff02191690556001820160146101000a81549060ff02191690556002820160009055600382016000905560048201600090556005820160009055505090556110c9565b505050505050565b6002818154811061132b57600080fd5b906000526020600020016000915090505481565b80600073ffffffffffffffffffffffffffffffffffffffff166001600083815260200190815260200160002060010160009054906101000a900473ffffffffffffffffffffffffffffffffffffffff1673ffffffffffffffffffffffffffffffffffffffff16036113af57600080fd5b82600360003373ffffffffffffffffffffffffffffffffffffffff1673ffffffffffffffffffffffffffffffffffffffff1681526020019081526020016000206000848152602001908152602001600020541015611442576040517f08c379a000000000000000000000000000000000000000000000000000000000815260040161143990612dea565b60405180910390fd5b82600360003373ffffffffffffffffffffffffffffffffffffffff1673ffffffffffffffffffffffffffffffffffffffff16815260200190815260200160002060008481526020019081526020016000205461149e9190612cb1565b600360003373ffffffffffffffffffffffffffffffffffffffff1673ffffffffffffffffffffffffffffffffffffffff1681526020019081526020016000206000848152602001908152602001600020819055506001600083815260200190815260200160002060010160009054906101000a900473ffffffffffffffffffffffffffffffffffffffff1673ffffffffffffffffffffffffffffffffffffffff1663a9059cbb33856040518363ffffffff1660e01b8152600401611563929190612e0a565b6020604051808303816000875af1158015611582573d6000803e3d6000fd5b505050506040513d601f19601f820116820180604052508101906115a69190612e6b565b50505050565b60606004600084815260200190815260200160002060008360018111156115d6576115d56125f2565b5b8152602001908152602001600020805480602002602001604051908101604052809291908181526020016000905b828210156116f957838290600052602060002090600602016040518060e0016040529081600082015481526020016001820160009054906101000a900473ffffffffffffffffffffffffffffffffffffffff1673ffffffffffffffffffffffffffffffffffffffff1673ffffffffffffffffffffffffffffffffffffffff1681526020016001820160149054906101000a900460ff1660018111156116ac576116ab6125f2565b5b60018111156116be576116bd6125f2565b5b815260200160028201548152602001600382015481526020016004820154815260200160058201548152505081526020019060010190611604565b50505050905092915050565b80600073ffffffffffffffffffffffffffffffffffffffff166001600083815260200190815260200160002060010160009054906101000a900473ffffffffffffffffffffffffffffffffffffffff1673ffffffffffffffffffffffffffffffffffffffff160361177557600080fd5b6001600083815260200190815260200160002060010160009054906101000a900473ffffffffffffffffffffffffffffffffffffffff1673ffffffffffffffffffffffffffffffffffffffff166323b872dd3330866040518463ffffffff1660e01b81526004016117e893929190612e98565b6020604051808303816000875af1158015611807573d6000803e3d6000fd5b505050506040513d601f19601f8201168201806040525081019061182b9190612e6b565b5082600360003373ffffffffffffffffffffffffffffffffffffffff1673ffffffffffffffffffffffffffffffffffffffff1681526020019081526020016000206000848152602001908152602001600020546118889190612cb1565b600360003373ffffffffffffffffffffffffffffffffffffffff1673ffffffffffffffffffffffffffffffffffffffff168152602001908152602001600020600084815260200190815260200160002081905550505050565b600060018111156118f5576118f46125f2565b5b856001811115611908576119076125f2565b5b0361199a5781836119199190612ce5565b600360003373ffffffffffffffffffffffffffffffffffffffff1673ffffffffffffffffffffffffffffffffffffffff16815260200190815260200160002060007f4554480000000000000000000000000000000000000000000000000000000000815260200190815260200160002054101561199557600080fd5b611a24565b6001808111156119ad576119ac6125f2565b5b8560018111156119c0576119bf6125f2565b5b03611a235782600360003373ffffffffffffffffffffffffffffffffffffffff1673ffffffffffffffffffffffffffffffffffffffff1681526020019081526020016000206000868152602001908152602001600020541015611a2257600080fd5b5b5b6000600460008681526020019081526020016000206000876001811115611a4e57611a4d6125f2565b5b81526020019081526020016000209050806040518060e0016040528060055481526020013373ffffffffffffffffffffffffffffffffffffffff168152602001886001811115611aa157611aa06125f2565b5b81526020018781526020018681526020018581526020018481525090806001815401808255809150506001900390600052602060002090600602016000909190919091506000820151816000015560208201518160010160006101000a81548173ffffffffffffffffffffffffffffffffffffffff021916908373ffffffffffffffffffffffffffffffffffffffff16021790555060408201518160010160146101000a81548160ff02191690836001811115611b6157611b606125f2565b5b0217905550606082015181600201556080820151816003015560a0820151816004015560c082015181600501555050600080828054905011611ba4576000611bb6565b60018280549050611bb59190612c4e565b5b905060006001811115611bcc57611bcb6125f2565b5b876001811115611bdf57611bde6125f2565b5b03611f56575b6000811115611f5157818181548110611c0157611c00612c82565b5b90600052602060002090600602016004015482600183611c219190612c4e565b81548110611c3257611c31612c82565b5b90600052602060002090600602016004015411611f5157600082600183611c599190612c4e565b81548110611c6a57611c69612c82565b5b90600052602060002090600602016040518060e0016040529081600082015481526020016001820160009054906101000a900473ffffffffffffffffffffffffffffffffffffffff1673ffffffffffffffffffffffffffffffffffffffff1673ffffffffffffffffffffffffffffffffffffffff1681526020016001820160149054906101000a900460ff166001811115611d0857611d076125f2565b5b6001811115611d1a57611d196125f2565b5b81526020016002820154815260200160038201548152602001600482015481526020016005820154815250509050828281548110611d5b57611d5a612c82565b5b906000526020600020906006020183600184611d779190612c4e565b81548110611d8857611d87612c82565b5b9060005260206000209060060201600082015481600001556001820160009054906101000a900473ffffffffffffffffffffffffffffffffffffffff168160010160006101000a81548173ffffffffffffffffffffffffffffffffffffffff021916908373ffffffffffffffffffffffffffffffffffffffff1602179055506001820160149054906101000a900460ff168160010160146101000a81548160ff02191690836001811115611e3f57611e3e6125f2565b5b02179055506002820154816002015560038201548160030155600482015481600401556005820154816005015590505080838381548110611e8357611e82612c82565b5b90600052602060002090600602016000820151816000015560208201518160010160006101000a81548173ffffffffffffffffffffffffffffffffffffffff021916908373ffffffffffffffffffffffffffffffffffffffff16021790555060408201518160010160146101000a81548160ff02191690836001811115611f0d57611f0c6125f2565b5b0217905550606082015181600201556080820151816003015560a0820151816004015560c082015181600501559050508180611f4890612ecf565b92505050611be5565b6122f0565b600180811115611f6957611f686125f2565b5b876001811115611f7c57611f7b6125f2565b5b036122ef575b60008111156122ee57818181548110611f9e57611f9d612c82565b5b90600052602060002090600602016004015482600183611fbe9190612c4e565b81548110611fcf57611fce612c82565b5b906000526020600020906006020160040154106122ee57600082600183611ff69190612c4e565b8154811061200757612006612c82565b5b90600052602060002090600602016040518060e0016040529081600082015481526020016001820160009054906101000a900473ffffffffffffffffffffffffffffffffffffffff1673ffffffffffffffffffffffffffffffffffffffff1673ffffffffffffffffffffffffffffffffffffffff1681526020016001820160149054906101000a900460ff1660018111156120a5576120a46125f2565b5b60018111156120b7576120b66125f2565b5b815260200160028201548152602001600382015481526020016004820154815260200160058201548152505090508282815481106120f8576120f7612c82565b5b9060005260206000209060060201836001846121149190612c4e565b8154811061212557612124612c82565b5b9060005260206000209060060201600082015481600001556001820160009054906101000a900473ffffffffffffffffffffffffffffffffffffffff168160010160006101000a81548173ffffffffffffffffffffffffffffffffffffffff021916908373ffffffffffffffffffffffffffffffffffffffff1602179055506001820160149054906101000a900460ff168160010160146101000a81548160ff021916908360018111156121dc576121db6125f2565b5b021790555060028201548160020155600382015481600301556004820154816004015560058201548160050155905050808383815481106122205761221f612c82565b5b90600052602060002090600602016000820151816000015560208201518160010160006101000a81548173ffffffffffffffffffffffffffffffffffffffff021916908373ffffffffffffffffffffffffffffffffffffffff16021790555060408201518160010160146101000a81548160ff021916908360018111156122aa576122a96125f2565b5b0217905550606082015181600201556080820151816003015560a0820151816004015560c0820151816005015590505081806122e590612ecf565b92505050611f82565b5b5b6005600081548092919061230390612d27565b919050555050505050505050565b612319612394565b600073ffffffffffffffffffffffffffffffffffffffff168173ffffffffffffffffffffffffffffffffffffffff1603612388576040517f08c379a000000000000000000000000000000000000000000000000000000000815260040161237f90612f6a565b60405180910390fd5b61239181612412565b50565b61239c6124d6565b73ffffffffffffffffffffffffffffffffffffffff166123ba6103f0565b73ffffffffffffffffffffffffffffffffffffffff1614612410576040517f08c379a000000000000000000000000000000000000000000000000000000000815260040161240790612fd6565b60405180910390fd5b565b60008060009054906101000a900473ffffffffffffffffffffffffffffffffffffffff169050816000806101000a81548173ffffffffffffffffffffffffffffffffffffffff021916908373ffffffffffffffffffffffffffffffffffffffff1602179055508173ffffffffffffffffffffffffffffffffffffffff168173ffffffffffffffffffffffffffffffffffffffff167f8be0079c531659141344cd1fd0a4f28419497f9722a3daafe3b4186f6b6457e060405160405180910390a35050565b600033905090565b600080fd5b6000819050919050565b6124f6816124e3565b811461250157600080fd5b50565b600081359050612513816124ed565b92915050565b6000819050919050565b61252c81612519565b811461253757600080fd5b50565b60008135905061254981612523565b92915050565b600080600060608486031215612568576125676124de565b5b600061257686828701612504565b93505060206125878682870161253a565b92505060406125988682870161253a565b9150509250925092565b6125ab81612519565b82525050565b600073ffffffffffffffffffffffffffffffffffffffff82169050919050565b60006125dc826125b1565b9050919050565b6125ec816125d1565b82525050565b7f4e487b7100000000000000000000000000000000000000000000000000000000600052602160045260246000fd5b60028110612632576126316125f2565b5b50565b600081905061264382612621565b919050565b600061265382612635565b9050919050565b61266381612648565b82525050565b612672816124e3565b82525050565b600060e08201905061268d600083018a6125a2565b61269a60208301896125e3565b6126a7604083018861265a565b6126b46060830187612669565b6126c160808301866125a2565b6126ce60a08301856125a2565b6126db60c08301846125a2565b98975050505050505050565b6126f0816125d1565b81146126fb57600080fd5b50565b60008135905061270d816126e7565b92915050565b6000806040838503121561272a576127296124de565b5b6000612738858286016126fe565b925050602061274985828601612504565b9150509250929050565b600060208201905061276860008301846125a2565b92915050565b600060208284031215612784576127836124de565b5b600061279284828501612504565b91505092915050565b60006040820190506127b06000830185612669565b6127bd60208301846125e3565b9392505050565b60006020820190506127d960008301846125e3565b92915050565b600080604083850312156127f6576127f56124de565b5b600061280485828601612504565b9250506020612815858286016126fe565b9150509250929050565b6002811061282c57600080fd5b50565b60008135905061283e8161281f565b92915050565b60008060006060848603121561285d5761285c6124de565b5b600061286b8682870161282f565b935050602061287c86828701612504565b925050604061288d8682870161253a565b9150509250925092565b6000602082840312156128ad576128ac6124de565b5b60006128bb8482850161253a565b91505092915050565b60006020820190506128d96000830184612669565b92915050565b600080604083850312156128f6576128f56124de565b5b60006129048582860161253a565b925050602061291585828601612504565b9150509250929050565b60008060408385031215612936576129356124de565b5b600061294485828601612504565b92505060206129558582860161282f565b9150509250929050565b600081519050919050565b600082825260208201905092915050565b6000819050602082019050919050565b61299481612519565b82525050565b6129a3816125d1565b82525050565b6129b281612648565b82525050565b6129c1816124e3565b82525050565b60e0820160008201516129dd600085018261298b565b5060208201516129f0602085018261299a565b506040820151612a0360408501826129a9565b506060820151612a1660608501826129b8565b506080820151612a29608085018261298b565b5060a0820151612a3c60a085018261298b565b5060c0820151612a4f60c085018261298b565b50505050565b6000612a6183836129c7565b60e08301905092915050565b6000602082019050919050565b6000612a858261295f565b612a8f818561296a565b9350612a9a8361297b565b8060005b83811015612acb578151612ab28882612a55565b9750612abd83612a6d565b925050600181019050612a9e565b5085935050505092915050565b60006020820190508181036000830152612af28184612a7a565b905092915050565b600080600080600060a08688031215612b1657612b156124de565b5b6000612b248882890161282f565b9550506020612b3588828901612504565b9450506040612b468882890161253a565b9350506060612b578882890161253a565b9250506080612b688882890161253a565b9150509295509295909350565b600060208284031215612b8b57612b8a6124de565b5b6000612b99848285016126fe565b91505092915050565b600082825260208201905092915050565b7f496e7375666669656e742062616c616e63650000000000000000000000000000600082015250565b6000612be9601283612ba2565b9150612bf482612bb3565b602082019050919050565b60006020820190508181036000830152612c1881612bdc565b9050919050565b7f4e487b7100000000000000000000000000000000000000000000000000000000600052601160045260246000fd5b6000612c5982612519565b9150612c6483612519565b9250828203905081811115612c7c57612c7b612c1f565b5b92915050565b7f4e487b7100000000000000000000000000000000000000000000000000000000600052603260045260246000fd5b6000612cbc82612519565b9150612cc783612519565b9250828201905080821115612cdf57612cde612c1f565b5b92915050565b6000612cf082612519565b9150612cfb83612519565b9250828202612d0981612519565b91508282048414831517612d2057612d1f612c1f565b5b5092915050565b6000612d3282612519565b91507fffffffffffffffffffffffffffffffffffffffffffffffffffffffffffffffff8203612d6457612d63612c1f565b5b600182019050919050565b7f4e487b7100000000000000000000000000000000000000000000000000000000600052603160045260246000fd5b7f746869732062616c616e6365206973206e6f742073756666696369656e740000600082015250565b6000612dd4601e83612ba2565b9150612ddf82612d9e565b602082019050919050565b60006020820190508181036000830152612e0381612dc7565b9050919050565b6000604082019050612e1f60008301856125e3565b612e2c60208301846125a2565b9392505050565b60008115159050919050565b612e4881612e33565b8114612e5357600080fd5b50565b600081519050612e6581612e3f565b92915050565b600060208284031215612e8157612e806124de565b5b6000612e8f84828501612e56565b91505092915050565b6000606082019050612ead60008301866125e3565b612eba60208301856125e3565b612ec760408301846125a2565b949350505050565b6000612eda82612519565b915060008203612eed57612eec612c1f565b5b600182039050919050565b7f4f776e61626c653a206e6577206f776e657220697320746865207a65726f206160008201527f6464726573730000000000000000000000000000000000000000000000000000602082015250565b6000612f54602683612ba2565b9150612f5f82612ef8565b604082019050919050565b60006020820190508181036000830152612f8381612f47565b9050919050565b7f4f776e61626c653a2063616c6c6572206973206e6f7420746865206f776e6572600082015250565b6000612fc0602083612ba2565b9150612fcb82612f8a565b602082019050919050565b60006020820190508181036000830152612fef81612fb3565b905091905056fea264697066735822122090e1dd66a842d8c7fbcca54d77f62b2047a697d2edcb55193aa44bbc563f915e64736f6c63430008110033",
  "immutableReferences": {},
  "source": "pragma solidity ^0.8.0;\r\npragma experimental ABIEncoderV2;\r\nimport './Wallet.sol';\r\n\r\ncontract Dex is Wallet {\r\n\r\n  enum Side {\r\n    BUY,\r\n    SELL\r\n  }\r\n  struct Order {\r\n    uint id;\r\n    address trader;\r\n    Side side;\r\n    bytes32 ticker;\r\n    uint amount;\r\n    uint price;\r\n    uint filled;\r\n\r\n  }\r\n\r\n\r\n  mapping(bytes32 => mapping(uint => Order[])) public orderBook;\r\n  uint public nextOrderId = 0;\r\n  \r\n\r\n  function getOrderBook(bytes32 ticker, Side side) view public returns(Order[] memory) {\r\n    return orderBook[ticker][uint(side)];\r\n  }\r\n\r\n  function createLimitOrder(Side side, bytes32 ticker, uint amount, uint price, uint filled) public {\r\n    if(side == Side.BUY) {\r\n      require(balances[msg.sender][\"ETH\"] >= amount*price);\r\n    }\r\n\r\n    else if(side == Side.SELL) {\r\n      require(balances[msg.sender][ticker] >= amount);\r\n    }\r\n\r\n    Order[] storage orders = orderBook[ticker][uint(side)];\r\n    orders.push(\r\n      Order(nextOrderId, msg.sender, side, ticker, amount, price, filled)\r\n    );\r\n\r\n    //sorting orders\r\n        //Bubble sort\r\n    uint i = orders.length > 0 ? orders.length - 1 : 0;\r\n    if(side == Side.BUY){\r\n        while(i > 0){\r\n            if(orders[i - 1].price > orders[i].price) {\r\n                break;\r\n            }\r\n            Order memory orderToMove = orders[i - 1];\r\n            orders[i - 1] = orders[i];\r\n            orders[i] = orderToMove;\r\n            i--;\r\n        }\r\n    }\r\n    else if(side == Side.SELL){\r\n        while(i > 0){\r\n            if(orders[i - 1].price < orders[i].price) {\r\n                break;   \r\n            }\r\n            Order memory orderToMove = orders[i - 1];\r\n            orders[i - 1] = orders[i];\r\n            orders[i] = orderToMove;\r\n            i--;\r\n        }\r\n    }\r\n    nextOrderId++;\r\n}\r\n\r\n    function createMarketOrder(Side side, bytes32 ticker, uint amount) public{\r\n        if(side == Side.SELL){\r\n            require(balances[msg.sender][ticker] >= amount, \"Insuffient balance\");\r\n        }\r\n        \r\n        uint orderBookSide;\r\n        if(side == Side.BUY){\r\n            orderBookSide = 1;\r\n        }\r\n        else{\r\n            orderBookSide = 0;\r\n        }\r\n        Order[] storage orders = orderBook[ticker][orderBookSide];\r\n\r\n        uint totalFilled = 0;\r\n\r\n        for (uint256 i = 0; i < orders.length && totalFilled < amount; i++) {\r\n            uint leftToFill = amount - totalFilled;\r\n            uint availableToFill = orders[i].amount - orders[i].filled;\r\n            uint filled = 0;\r\n            if(availableToFill > leftToFill){\r\n                filled = leftToFill; //Fill the entire market order\r\n            }\r\n            else{ \r\n                filled = availableToFill; //Fill as much as is available in order[i]\r\n            }\r\n\r\n            totalFilled = totalFilled + filled;\r\n            orders[i].filled = orders[i].filled + filled;\r\n            uint cost = filled * orders[i].price;\r\n\r\n            if(side == Side.BUY){\r\n                //Verify that the buyer has enough ETH to cover the purchase (require)\r\n                require(balances[msg.sender][\"ETH\"] >= cost);\r\n                //msg.sender is the buyer\r\n                balances[msg.sender][ticker] = balances[msg.sender][ticker] + filled;\r\n                balances[msg.sender][\"ETH\"] = balances[msg.sender][\"ETH\"] - cost;\r\n                \r\n                balances[orders[i].trader][ticker] = balances[orders[i].trader][ticker] - filled;\r\n                balances[orders[i].trader][\"ETH\"] = balances[orders[i].trader][\"ETH\"] + cost;\r\n            }\r\n            else if(side == Side.SELL){\r\n                //Msg.sender is the seller\r\n                balances[msg.sender][ticker] = balances[msg.sender][ticker] - filled;\r\n                balances[msg.sender][\"ETH\"] = balances[msg.sender][\"ETH\"] + cost;\r\n                \r\n                balances[orders[i].trader][ticker] = balances[orders[i].trader][ticker] + filled;\r\n                balances[orders[i].trader][\"ETH\"] = balances[orders[i].trader][\"ETH\"] - cost;\r\n            }\r\n            \r\n        }\r\n            //Remove 100% filled orders from the orderbook\r\n        while(orders.length > 0 && orders[0].filled == orders[0].amount){\r\n            //Remove the top element in the orders array by overwriting every element\r\n            // with the next element in the order list\r\n            for (uint256 i = 0; i < orders.length - 1; i++) {\r\n                orders[i] = orders[i + 1];\r\n            }\r\n            orders.pop();\r\n        }\r\n        \r\n    }\r\n}\r\n",
  "sourcePath": "C:\\Users\\Hannes Verschueren\\demos\\Moralis\\Academy\\dex\\contracts\\DEX.sol",
  "compiler": {
    "name": "solc",
    "version": "0.8.17+commit.8df45f5f.Emscripten.clang"
  },
  "schemaVersion": "3.4.10",
  "updatedAt": "2022-10-09T17:23:28.147Z",
  "networkType": "ethereum",
  "devdoc": {
    "kind": "dev",
    "methods": {
      "owner()": {
        "details": "Returns the address of the current owner."
      },
      "renounceOwnership()": {
        "details": "Leaves the contract without owner. It will not be possible to call `onlyOwner` functions anymore. Can only be called by the current owner. NOTE: Renouncing ownership will leave the contract without an owner, thereby removing any functionality that is only available to the owner."
      },
      "transferOwnership(address)": {
        "details": "Transfers ownership of the contract to a new account (`newOwner`). Can only be called by the current owner."
      }
    },
    "version": 1
  },
  "userdoc": {
    "kind": "user",
    "methods": {},
    "version": 1
  }
}